{
  "_format": "hh-sol-artifact-1",
  "contractName": "WorldPurpose",
  "sourceName": "contracts/WorldPurpose.sol",
  "abi": [
    {
      "anonymous": false,
      "inputs": [
        {
          "indexed": true,
          "internalType": "address",
          "name": "owner",
          "type": "address"
        },
        {
          "indexed": false,
          "internalType": "string",
          "name": "purpose",
          "type": "string"
        },
        {
          "indexed": false,
          "internalType": "uint256",
          "name": "investment",
          "type": "uint256"
        }
      ],
      "name": "PurposeChange",
      "type": "event"
    },
    {
      "inputs": [],
      "name": "getBalance",
      "outputs": [
        {
          "internalType": "uint256",
          "name": "balance",
          "type": "uint256"
        }
      ],
      "stateMutability": "view",
      "type": "function"
    },
    {
      "inputs": [],
      "name": "getCurrentPurpose",
      "outputs": [
        {
          "components": [
            {
              "internalType": "address",
              "name": "owner",
              "type": "address"
            },
            {
              "internalType": "string",
              "name": "purpose",
              "type": "string"
            },
            {
              "internalType": "uint256",
              "name": "investment",
              "type": "uint256"
            }
          ],
          "internalType": "struct Purpose",
          "name": "currentPurpose",
          "type": "tuple"
        }
      ],
      "stateMutability": "view",
      "type": "function"
    },
    {
      "inputs": [
        {
          "internalType": "string",
          "name": "_purpose",
          "type": "string"
        }
      ],
      "name": "setPurpose",
      "outputs": [
        {
          "components": [
            {
              "internalType": "address",
              "name": "owner",
              "type": "address"
            },
            {
              "internalType": "string",
              "name": "purpose",
              "type": "string"
            },
            {
              "internalType": "uint256",
              "name": "investment",
              "type": "uint256"
            }
          ],
          "internalType": "struct Purpose",
          "name": "newPurpose",
          "type": "tuple"
        }
      ],
      "stateMutability": "payable",
      "type": "function"
    },
    {
      "inputs": [],
      "name": "withdraw",
      "outputs": [],
      "stateMutability": "nonpayable",
      "type": "function"
    }
  ],
  "bytecode": "0x608060405234801561001057600080fd5b50611092806100206000396000f3fe60806040526004361061003f5760003560e01c806312065fe0146100445780633ccfd60b1461006f578063940f141114610086578063eb68757f146100b1575b600080fd5b34801561005057600080fd5b506100596100e1565b60405161006691906108a0565b60405180910390f35b34801561007b57600080fd5b50610084610127565b005b34801561009257600080fd5b5061009b610325565b6040516100a891906109f4565b60405180910390f35b6100cb60048036038101906100c69190610b5f565b610431565b6040516100d891906109f4565b60405180910390f35b60008060003373ffffffffffffffffffffffffffffffffffffffff1673ffffffffffffffffffffffffffffffffffffffff16815260200190815260200160002054905090565b60008060003373ffffffffffffffffffffffffffffffffffffffff1673ffffffffffffffffffffffffffffffffffffffff1681526020019081526020016000205490506000600160000160009054906101000a900473ffffffffffffffffffffffffffffffffffffffff1690503373ffffffffffffffffffffffffffffffffffffffff168173ffffffffffffffffffffffffffffffffffffffff1614156101dc57600160020154826101d99190610bd7565b91505b6000821161021f576040517f08c379a000000000000000000000000000000000000000000000000000000000815260040161021690610c8e565b60405180910390fd5b816000803373ffffffffffffffffffffffffffffffffffffffff1673ffffffffffffffffffffffffffffffffffffffff168152602001908152602001600020600082825461026d9190610bd7565b9250508190555060003373ffffffffffffffffffffffffffffffffffffffff168360405161029a90610cdf565b60006040518083038185875af1925050503d80600081146102d7576040519150601f19603f3d011682016040523d82523d6000602084013e6102dc565b606091505b5050905080610320576040517f08c379a000000000000000000000000000000000000000000000000000000000815260040161031790610d66565b60405180910390fd5b505050565b61032d6107ad565b60016040518060600160405290816000820160009054906101000a900473ffffffffffffffffffffffffffffffffffffffff1673ffffffffffffffffffffffffffffffffffffffff1673ffffffffffffffffffffffffffffffffffffffff1681526020016001820180546103a090610db5565b80601f01602080910402602001604051908101604052809291908181526020018280546103cc90610db5565b80156104195780601f106103ee57610100808354040283529160200191610419565b820191906000526020600020905b8154815290600101906020018083116103fc57829003601f168201915b50505050508152602001600282015481525050905090565b6104396107ad565b3373ffffffffffffffffffffffffffffffffffffffff16600160000160009054906101000a900473ffffffffffffffffffffffffffffffffffffffff1673ffffffffffffffffffffffffffffffffffffffff1614156104cd576040517f08c379a00000000000000000000000000000000000000000000000000000000081526004016104c490610e59565b60405180910390fd5b6001600201543411610514576040517f08c379a000000000000000000000000000000000000000000000000000000000815260040161050b90610eeb565b60405180910390fd5b6000829050600081511161055d576040517f08c379a000000000000000000000000000000000000000000000000000000000815260040161055490610f7d565b60405180910390fd5b60405180606001604052803373ffffffffffffffffffffffffffffffffffffffff16815260200184815260200134815250600160008201518160000160006101000a81548173ffffffffffffffffffffffffffffffffffffffff021916908373ffffffffffffffffffffffffffffffffffffffff16021790555060208201518160010190805190602001906105f39291906107e4565b5060408201518160020155905050346000803373ffffffffffffffffffffffffffffffffffffffff1673ffffffffffffffffffffffffffffffffffffffff168152602001908152602001600020600082825461064f9190610f9d565b925050819055503373ffffffffffffffffffffffffffffffffffffffff167f447c0859d99fb40cddfb2a3f0ae93a9f88dd0b5667e46c910501d05396fe46a7843460405161069e92919061102c565b60405180910390a260016040518060600160405290816000820160009054906101000a900473ffffffffffffffffffffffffffffffffffffffff1673ffffffffffffffffffffffffffffffffffffffff1673ffffffffffffffffffffffffffffffffffffffff16815260200160018201805461071990610db5565b80601f016020809104026020016040519081016040528092919081815260200182805461074590610db5565b80156107925780601f1061076757610100808354040283529160200191610792565b820191906000526020600020905b81548152906001019060200180831161077557829003601f168201915b50505050508152602001600282015481525050915050919050565b6040518060600160405280600073ffffffffffffffffffffffffffffffffffffffff16815260200160608152602001600081525090565b8280546107f090610db5565b90600052602060002090601f0160209004810192826108125760008555610859565b82601f1061082b57805160ff1916838001178555610859565b82800160010185558215610859579182015b8281111561085857825182559160200191906001019061083d565b5b509050610866919061086a565b5090565b5b8082111561088357600081600090555060010161086b565b5090565b6000819050919050565b61089a81610887565b82525050565b60006020820190506108b56000830184610891565b92915050565b600073ffffffffffffffffffffffffffffffffffffffff82169050919050565b60006108e6826108bb565b9050919050565b6108f6816108db565b82525050565b600081519050919050565b600082825260208201905092915050565b60005b8381101561093657808201518184015260208101905061091b565b83811115610945576000848401525b50505050565b6000601f19601f8301169050919050565b6000610967826108fc565b6109718185610907565b9350610981818560208601610918565b61098a8161094b565b840191505092915050565b61099e81610887565b82525050565b60006060830160008301516109bc60008601826108ed565b50602083015184820360208601526109d4828261095c565b91505060408301516109e96040860182610995565b508091505092915050565b60006020820190508181036000830152610a0e81846109a4565b905092915050565b6000604051905090565b600080fd5b600080fd5b600080fd5b600080fd5b7f4e487b7100000000000000000000000000000000000000000000000000000000600052604160045260246000fd5b610a6c8261094b565b810181811067ffffffffffffffff82111715610a8b57610a8a610a34565b5b80604052505050565b6000610a9e610a16565b9050610aaa8282610a63565b919050565b600067ffffffffffffffff821115610aca57610ac9610a34565b5b610ad38261094b565b9050602081019050919050565b82818337600083830152505050565b6000610b02610afd84610aaf565b610a94565b905082815260208101848484011115610b1e57610b1d610a2f565b5b610b29848285610ae0565b509392505050565b600082601f830112610b4657610b45610a2a565b5b8135610b56848260208601610aef565b91505092915050565b600060208284031215610b7557610b74610a20565b5b600082013567ffffffffffffffff811115610b9357610b92610a25565b5b610b9f84828501610b31565b91505092915050565b7f4e487b7100000000000000000000000000000000000000000000000000000000600052601160045260246000fd5b6000610be282610887565b9150610bed83610887565b925082821015610c0057610bff610ba8565b5b828203905092915050565b600082825260208201905092915050565b7f596f7520646f6e2774206861766520656e6f756768207769746864726177616260008201527f6c652062616c616e636500000000000000000000000000000000000000000000602082015250565b6000610c78602a83610c0b565b9150610c8382610c1c565b604082019050919050565b60006020820190508181036000830152610ca781610c6b565b9050919050565b600081905092915050565b50565b6000610cc9600083610cae565b9150610cd482610cb9565b600082019050919050565b6000610cea82610cbc565b9150819050919050565b7f4661696c656420746f2073656e6420757365722062616c616e6365206261636b60008201527f20746f2074686520757365720000000000000000000000000000000000000000602082015250565b6000610d50602c83610c0b565b9150610d5b82610cf4565b604082019050919050565b60006020820190508181036000830152610d7f81610d43565b9050919050565b7f4e487b7100000000000000000000000000000000000000000000000000000000600052602260045260246000fd5b60006002820490506001821680610dcd57607f821691505b60208210811415610de157610de0610d86565b5b50919050565b7f596f752063616e6e6f74206f7665727269646520796f7572206f776e2070757260008201527f706f736500000000000000000000000000000000000000000000000000000000602082015250565b6000610e43602483610c0b565b9150610e4e82610de7565b604082019050919050565b60006020820190508181036000830152610e7281610e36565b9050919050565b7f596f75206e65656420746f20696e76657374206d6f7265207468616e2074686560008201527f2070726576696f757320707572706f7365206f776e6572000000000000000000602082015250565b6000610ed5603783610c0b565b9150610ee082610e79565b604082019050919050565b60006020820190508181036000830152610f0481610ec8565b9050919050565b7f596f75206e65656420746f20736574206120707572706f7365206d657373616760008201527f6500000000000000000000000000000000000000000000000000000000000000602082015250565b6000610f67602183610c0b565b9150610f7282610f0b565b604082019050919050565b60006020820190508181036000830152610f9681610f5a565b9050919050565b6000610fa882610887565b9150610fb383610887565b9250827fffffffffffffffffffffffffffffffffffffffffffffffffffffffffffffffff03821115610fe857610fe7610ba8565b5b828201905092915050565b6000610ffe826108fc565b6110088185610c0b565b9350611018818560208601610918565b6110218161094b565b840191505092915050565b600060408201905081810360008301526110468185610ff3565b90506110556020830184610891565b939250505056fea2646970667358221220c02e7897a78360d0444690f7381988630f4e8384a7eba78b7c20d9cc1479207364736f6c63430008090033",
  "linkReferences": {},
  "deployedLinkReferences": {}
}